:100000000C9434000C9451000C9451000C94510049
:100010000C9464010C943F010C9451000C94510019
:100020000C9451000C9451000C9451000C9451000C
:100030000C9451000C9451000C94E7020C94510064
:100040000C9451000C9451000C9451000C945100EC
:100050000C9451000C9451000C9451000C945100DC
:100060000C9451000C94510011241FBECFEFD8E026
:10007000DEBFCDBF11E0A0E0B1E0E2E3F6E002C0F8
:1000800005900D92AC30B107D9F721E0ACE0B1E0BA
:1000900001C01D92AA32B207E1F70E9418020C9427
:1000A00017030C9400008AB18F778AB987B18F7ECD
:1000B00087B987B18F7D87B9E8E6F0E080818660F7
:1000C0008083EDE6F0E0808180688083ECE6F0E0FC
:1000D00080818F7C808389B18095881F8827881FC5
:1000E0008093180186B182958F7091E08927817085
:1000F0008093120186B182958695877098279170BA
:1001000090930C010895109217011092110186B17D
:1001100082958F7091E0892781708093120186B15A
:100120008295869587709827917090930C01ECE6E4
:10013000F0E08081806380830895ECE6F0E08081C8
:100140008F7C808308950F931F9380911D018823D6
:1001500051F10E940C030091190110911A01209194
:100160001B0130911C01DC01CB01801B910BA20B08
:10017000B30B4F97A105B10588F089B18095881F11
:100180008827881F10921D0190911801891741F04E
:1001900080931801813031F080E005C080E003C019
:1001A00080E001C081E01F910F9108950F931F938C
:1001B00080911701882359F10E940C0300911301CB
:1001C000109114012091150130911601DC01CB0131
:1001D000801B910BA20BB30B4F97A105B10590F0BB
:1001E00086B182958F7091E08927817010921701F6
:1001F00090911201891741F080931201813031F002
:1002000080E005C080E003C080E001C081E01F9174
:100210000F9108950F931F9380911101882361F12D
:100220000E940C0300910D0110910E0120910F010D
:1002300030911001DC01CB01801B910BA20BB30BA1
:100240004F97A105B10598F086B182958695877084
:1002500091E0892781701092110190910C0189170A
:1002600041F080930C01813031F080E005C080E0E6
:1002700003C080E001C081E01F910F9108951F929B
:100280000F920FB60F9211248F939F93AF93BF934A
:100290008091260190912701A0912801B091290118
:1002A0008093190190931A01A0931B01B0931C0134
:1002B00081E080931D01BF91AF919F918F910F902D
:1002C0000FBE0F901F9018951F920F920FB60F92AE
:1002D00011244F935F936F937F938F939F93AF936B
:1002E000BF938091260190912701A0912801B091A0
:1002F00029018093130190931401A0931501B093E9
:10030000160181E080931701409126015091270149
:10031000609128017091290140930D0150930E01C5
:1003200060930F017093100180931101BF91AF9101
:100330009F918F917F916F915F914F910F900FBE21
:100340000F901F9018958A3050F49BB1E82FF0E081
:10035000EF5FFE4F808190788F77892B8BB908955E
:100360008BB180788BB908951092C1008AB18160F9
:100370008AB98AB182608AB98AB184608AB98AB13D
:1003800088608AB98AB180618AB98AB180628AB983
:100390008AB180648AB90E94B001089584B18160F5
:1003A00084B984B1826084B984B1846084B984B131
:1003B000886084B987B1816087B987B1826087B965
:1003C00087B1846087B987B1886087B985B1807F3C
:1003D00085B988B1807F88B9089585B1807F85B956
:1003E00088B1807F88B995B1809124018F70892B65
:1003F00085B998B1809123018F70892B88B90895B0
:10040000813051F485B18F6085B988B1807F88B91A
:1004100081E00E94A3010895823049F488B18F6081
:1004200088B985B1807F85B982E00E94A3010895D3
:10043000F8940E94D6020E9453000E94B4010E94C8
:10044000CE01789480912501813039F138F08230E5
:1004500009F453C0833009F489C0F4CF0E94A3008B
:10046000882381F310922401109223010E94ED0150
:100470000E949D0085E0809300010E94A3010E94DC
:100480000C0360931F0170932001809321019093CE
:10049000220181E080932501D5CF0E940C030091B9
:1004A0001F01109120012091210130912201DC01D6
:1004B000CB01801B910BA20BB30B883E9340A1058F
:1004C000B10508F4BFCF0E940C0360931F01709325
:1004D00020018093210190932201809100018111DC
:1004E00006C00E94830082E080932501ABCF81503B
:1004F000809300010E94A301A5CF0E94D60088230B
:10050000B9F0809124018F5F809324010E94ED0156
:1005100080912401893060F081E080931E010E9467
:100520009D0080911E010E94000283E080932501BE
:100530000E940A01882309F485CF809123018F5FEF
:10054000809323010E94ED0180912301893008F4FA
:1005500079CF82E080931E010E949D0080911E0150
:100560000E94000283E0809325016CCF0E94A300CB
:10057000882309F467CF10922401109223010E946E
:10058000ED010E949D0085E0809300010E94A3017F
:100590000E940C0360931F0170932001809321013E
:1005A0009093220181E0809325014CCF82E084BDAD
:1005B00093E095BD99EF97BD80936E001092260150
:1005C00010922701109228011092290108951F927C
:1005D0000F920FB60F9211248F939F93AF93BF93F7
:1005E0008091260190912701A0912801B0912901C5
:1005F0000196A11DB11D8093260190932701A09320
:100600002801B0932901BF91AF919F918F910F90D5
:100610000FBE0F901F901895F8946091260170916D
:100620002701809128019091290178940895F894E8
:02063000FFCFFA
:0C063200053F065B4F666D7D077F6F0083
:00000001FF
